{
  "contractName": "ProductsContract",
  "abi": [
    {
      "inputs": [],
      "stateMutability": "nonpayable",
      "type": "constructor"
    },
    {
      "anonymous": false,
      "inputs": [
        {
          "indexed": false,
          "internalType": "uint256",
          "name": "id",
          "type": "uint256"
        },
        {
          "indexed": false,
          "internalType": "string",
          "name": "title",
          "type": "string"
        },
        {
          "indexed": false,
          "internalType": "string",
          "name": "description",
          "type": "string"
        },
        {
          "indexed": false,
          "internalType": "bool",
          "name": "published",
          "type": "bool"
        },
        {
          "indexed": false,
          "internalType": "uint256",
          "name": "createdAT",
          "type": "uint256"
        }
      ],
      "name": "ProductCreated",
      "type": "event"
    },
    {
      "anonymous": false,
      "inputs": [
        {
          "indexed": false,
          "internalType": "uint256",
          "name": "id",
          "type": "uint256"
        },
        {
          "indexed": false,
          "internalType": "string",
          "name": "title",
          "type": "string"
        },
        {
          "indexed": false,
          "internalType": "string",
          "name": "description",
          "type": "string"
        },
        {
          "indexed": false,
          "internalType": "uint256",
          "name": "createdAT",
          "type": "uint256"
        }
      ],
      "name": "ProductDelete",
      "type": "event"
    },
    {
      "anonymous": false,
      "inputs": [
        {
          "indexed": false,
          "internalType": "uint256",
          "name": "id",
          "type": "uint256"
        },
        {
          "indexed": false,
          "internalType": "bool",
          "name": "published",
          "type": "bool"
        }
      ],
      "name": "ProductTogglePublished",
      "type": "event"
    },
    {
      "anonymous": false,
      "inputs": [
        {
          "indexed": false,
          "internalType": "uint256",
          "name": "id",
          "type": "uint256"
        },
        {
          "indexed": false,
          "internalType": "string",
          "name": "title",
          "type": "string"
        },
        {
          "indexed": false,
          "internalType": "string",
          "name": "description",
          "type": "string"
        },
        {
          "indexed": false,
          "internalType": "uint256",
          "name": "createdAT",
          "type": "uint256"
        }
      ],
      "name": "ProductUpdate",
      "type": "event"
    },
    {
      "inputs": [
        {
          "internalType": "uint256",
          "name": "",
          "type": "uint256"
        }
      ],
      "name": "products",
      "outputs": [
        {
          "internalType": "uint256",
          "name": "id",
          "type": "uint256"
        },
        {
          "internalType": "string",
          "name": "title",
          "type": "string"
        },
        {
          "internalType": "string",
          "name": "description",
          "type": "string"
        },
        {
          "internalType": "bool",
          "name": "published",
          "type": "bool"
        },
        {
          "internalType": "uint256",
          "name": "createdAT",
          "type": "uint256"
        }
      ],
      "stateMutability": "view",
      "type": "function"
    },
    {
      "inputs": [],
      "name": "productsCounter",
      "outputs": [
        {
          "internalType": "uint256",
          "name": "",
          "type": "uint256"
        }
      ],
      "stateMutability": "view",
      "type": "function"
    },
    {
      "inputs": [
        {
          "internalType": "string",
          "name": "_title",
          "type": "string"
        },
        {
          "internalType": "string",
          "name": "_description",
          "type": "string"
        }
      ],
      "name": "createProduct",
      "outputs": [],
      "stateMutability": "nonpayable",
      "type": "function"
    },
    {
      "inputs": [
        {
          "internalType": "uint256",
          "name": "_id",
          "type": "uint256"
        }
      ],
      "name": "togglePublished",
      "outputs": [],
      "stateMutability": "nonpayable",
      "type": "function"
    },
    {
      "inputs": [
        {
          "internalType": "uint256",
          "name": "_id",
          "type": "uint256"
        },
        {
          "internalType": "string",
          "name": "_title",
          "type": "string"
        },
        {
          "internalType": "string",
          "name": "_description",
          "type": "string"
        }
      ],
      "name": "updateProduct",
      "outputs": [],
      "stateMutability": "nonpayable",
      "type": "function"
    },
    {
      "inputs": [
        {
          "internalType": "uint256",
          "name": "_id",
          "type": "uint256"
        }
      ],
      "name": "deleteProduct",
      "outputs": [],
      "stateMutability": "nonpayable",
      "type": "function"
    }
  ],
  "bytecode": "0x6080604052600080553480156200001557600080fd5b50620000766040518060400160405280601381526020017f50726f647563746f20646520656a656d706c6f000000000000000000000000008152506040518060600160405280602381526020016200156e602391396200007c60201b60201c565b6200046b565b6000808154809291906200009090620003ae565b91905055506040518060a001604052806000548152602001838152602001828152602001600015158152602001428152506001600080548152602001908152602001600020600082015181600001556020820151816001019080519060200190620000fd92919062000192565b5060408201518160020190805190602001906200011c92919062000192565b5060608201518160030160006101000a81548160ff021916908315150217905550608082015181600401559050507faf68208897554cdde98b6de1fb5fd6c312f5909ba5dd79f29a9fd689a882e7f0600054838360004260405162000186959493929190620002a5565b60405180910390a15050565b828054620001a09062000378565b90600052602060002090601f016020900481019282620001c4576000855562000210565b82601f10620001df57805160ff191683800117855562000210565b8280016001018555821562000210579182015b828111156200020f578251825591602001919060010190620001f2565b5b5090506200021f919062000223565b5090565b5b808211156200023e57600081600090555060010162000224565b5090565b6200024d816200032c565b82525050565b6000620002608262000310565b6200026c81856200031b565b93506200027e81856020860162000342565b62000289816200045a565b840191505092915050565b6200029f8162000338565b82525050565b600060a082019050620002bc600083018862000294565b8181036020830152620002d0818762000253565b90508181036040830152620002e6818662000253565b9050620002f7606083018562000242565b62000306608083018462000294565b9695505050505050565b600081519050919050565b600082825260208201905092915050565b60008115159050919050565b6000819050919050565b60005b838110156200036257808201518184015260208101905062000345565b8381111562000372576000848401525b50505050565b600060028204905060018216806200039157607f821691505b60208210811415620003a857620003a76200042b565b5b50919050565b6000620003bb8262000338565b91507fffffffffffffffffffffffffffffffffffffffffffffffffffffffffffffffff821415620003f157620003f0620003fc565b5b600182019050919050565b7f4e487b7100000000000000000000000000000000000000000000000000000000600052601160045260246000fd5b7f4e487b7100000000000000000000000000000000000000000000000000000000600052602260045260246000fd5b6000601f19601f8301169050919050565b6110f3806200047b6000396000f3fe608060405234801561001057600080fd5b50600436106100625760003560e01c80630ecbabff146100675780637acc0b201461008357806387592bce146100b7578063a5296956146100d3578063ed90c7b7146100ef578063fc933e8f1461010b575b600080fd5b610081600480360381019061007c9190610ca4565b610129565b005b61009d60048036038101906100989190610c77565b61038e565b6040516100ae959493929190610dca565b60405180910390f35b6100d160048036038101906100cc9190610bff565b6104e1565b005b6100ed60048036038101906100e89190610c77565b6105ef565b005b61010960048036038101906101049190610c77565b61083f565b005b610113610ad1565b6040516101209190610d86565b60405180910390f35b6000600160008581526020019081526020016000206040518060a00160405290816000820154815260200160018201805461016390610f48565b80601f016020809104026020016040519081016040528092919081815260200182805461018f90610f48565b80156101dc5780601f106101b1576101008083540402835291602001916101dc565b820191906000526020600020905b8154815290600101906020018083116101bf57829003601f168201915b505050505081526020016002820180546101f590610f48565b80601f016020809104026020016040519081016040528092919081815260200182805461022190610f48565b801561026e5780601f106102435761010080835404028352916020019161026e565b820191906000526020600020905b81548152906001019060200180831161025157829003601f168201915b505050505081526020016003820160009054906101000a900460ff1615151515815260200160048201548152505090508281602001819052508181604001819052504281608001818152505080600160008681526020019081526020016000206000820151816000015560208201518160010190805190602001906102f4929190610ad7565b506040820151816002019080519060200190610311929190610ad7565b5060608201518160030160006101000a81548160ff021916908315150217905550608082015181600401559050507f7604a6fef2b541064930ab22ad9b5b53ae7c4c127627a89a208b52eb4560f986848260200151836040015184608001516040516103809493929190610e2b565b60405180910390a150505050565b60016020528060005260406000206000915090508060000154908060010180546103b790610f48565b80601f01602080910402602001604051908101604052809291908181526020018280546103e390610f48565b80156104305780601f1061040557610100808354040283529160200191610430565b820191906000526020600020905b81548152906001019060200180831161041357829003601f168201915b50505050509080600201805461044590610f48565b80601f016020809104026020016040519081016040528092919081815260200182805461047190610f48565b80156104be5780601f10610493576101008083540402835291602001916104be565b820191906000526020600020905b8154815290600101906020018083116104a157829003601f168201915b5050505050908060030160009054906101000a900460ff16908060040154905085565b6000808154809291906104f390610fab565b91905055506040518060a00160405280600054815260200183815260200182815260200160001515815260200142815250600160008054815260200190815260200160002060008201518160000155602082015181600101908051906020019061055e929190610ad7565b50604082015181600201908051906020019061057b929190610ad7565b5060608201518160030160006101000a81548160ff021916908315150217905550608082015181600401559050507faf68208897554cdde98b6de1fb5fd6c312f5909ba5dd79f29a9fd689a882e7f060005483836000426040516105e3959493929190610dca565b60405180910390a15050565b6000600160008381526020019081526020016000206040518060a00160405290816000820154815260200160018201805461062990610f48565b80601f016020809104026020016040519081016040528092919081815260200182805461065590610f48565b80156106a25780601f10610677576101008083540402835291602001916106a2565b820191906000526020600020905b81548152906001019060200180831161068557829003601f168201915b505050505081526020016002820180546106bb90610f48565b80601f01602080910402602001604051908101604052809291908181526020018280546106e790610f48565b80156107345780601f1061070957610100808354040283529160200191610734565b820191906000526020600020905b81548152906001019060200180831161071757829003601f168201915b505050505081526020016003820160009054906101000a900460ff16151515158152602001600482015481525050905080606001511581606001901515908115158152505080600160008481526020019081526020016000206000820151816000015560208201518160010190805190602001906107b3929190610ad7565b5060408201518160020190805190602001906107d0929190610ad7565b5060608201518160030160006101000a81548160ff021916908315150217905550608082015181600401559050507fcb9b8962fd992ea4e81fe586aa97202f9a52e9f85957018bff92c0610a881bdb828260600151604051610833929190610da1565b60405180910390a15050565b6000600160008381526020019081526020016000206040518060a00160405290816000820154815260200160018201805461087990610f48565b80601f01602080910402602001604051908101604052809291908181526020018280546108a590610f48565b80156108f25780601f106108c7576101008083540402835291602001916108f2565b820191906000526020600020905b8154815290600101906020018083116108d557829003601f168201915b5050505050815260200160028201805461090b90610f48565b80601f016020809104026020016040519081016040528092919081815260200182805461093790610f48565b80156109845780601f1061095957610100808354040283529160200191610984565b820191906000526020600020905b81548152906001019060200180831161096757829003601f168201915b505050505081526020016003820160009054906101000a900460ff1615151515815260200160048201548152505090506040518060200160405280600081525081602001819052506040518060200160405280600081525081604001819052506000816060019015159081151581525050428160800181815250508060016000848152602001908152602001600020600082015181600001556020820151816001019080519060200190610a39929190610ad7565b506040820151816002019080519060200190610a56929190610ad7565b5060608201518160030160006101000a81548160ff021916908315150217905550608082015181600401559050507f2dcb2b300cd7298a80243baa20e0e07850ee4642eaf1473a45607ae02f3bfdb682826020015183604001518460800151604051610ac59493929190610e2b565b60405180910390a15050565b60005481565b828054610ae390610f48565b90600052602060002090601f016020900481019282610b055760008555610b4c565b82601f10610b1e57805160ff1916838001178555610b4c565b82800160010185558215610b4c579182015b82811115610b4b578251825591602001919060010190610b30565b5b509050610b599190610b5d565b5090565b5b80821115610b76576000816000905550600101610b5e565b5090565b6000610b8d610b8884610ea3565b610e7e565b905082815260208101848484011115610ba957610ba8611086565b5b610bb4848285610f06565b509392505050565b600082601f830112610bd157610bd0611081565b5b8135610be1848260208601610b7a565b91505092915050565b600081359050610bf9816110a6565b92915050565b60008060408385031215610c1657610c15611090565b5b600083013567ffffffffffffffff811115610c3457610c3361108b565b5b610c4085828601610bbc565b925050602083013567ffffffffffffffff811115610c6157610c6061108b565b5b610c6d85828601610bbc565b9150509250929050565b600060208284031215610c8d57610c8c611090565b5b6000610c9b84828501610bea565b91505092915050565b600080600060608486031215610cbd57610cbc611090565b5b6000610ccb86828701610bea565b935050602084013567ffffffffffffffff811115610cec57610ceb61108b565b5b610cf886828701610bbc565b925050604084013567ffffffffffffffff811115610d1957610d1861108b565b5b610d2586828701610bbc565b9150509250925092565b610d3881610ef0565b82525050565b6000610d4982610ed4565b610d538185610edf565b9350610d63818560208601610f15565b610d6c81611095565b840191505092915050565b610d8081610efc565b82525050565b6000602082019050610d9b6000830184610d77565b92915050565b6000604082019050610db66000830185610d77565b610dc36020830184610d2f565b9392505050565b600060a082019050610ddf6000830188610d77565b8181036020830152610df18187610d3e565b90508181036040830152610e058186610d3e565b9050610e146060830185610d2f565b610e216080830184610d77565b9695505050505050565b6000608082019050610e406000830187610d77565b8181036020830152610e528186610d3e565b90508181036040830152610e668185610d3e565b9050610e756060830184610d77565b95945050505050565b6000610e88610e99565b9050610e948282610f7a565b919050565b6000604051905090565b600067ffffffffffffffff821115610ebe57610ebd611052565b5b610ec782611095565b9050602081019050919050565b600081519050919050565b600082825260208201905092915050565b60008115159050919050565b6000819050919050565b82818337600083830152505050565b60005b83811015610f33578082015181840152602081019050610f18565b83811115610f42576000848401525b50505050565b60006002820490506001821680610f6057607f821691505b60208210811415610f7457610f73611023565b5b50919050565b610f8382611095565b810181811067ffffffffffffffff82111715610fa257610fa1611052565b5b80604052505050565b6000610fb682610efc565b91507fffffffffffffffffffffffffffffffffffffffffffffffffffffffffffffffff821415610fe957610fe8610ff4565b5b600182019050919050565b7f4e487b7100000000000000000000000000000000000000000000000000000000600052601160045260246000fd5b7f4e487b7100000000000000000000000000000000000000000000000000000000600052602260045260246000fd5b7f4e487b7100000000000000000000000000000000000000000000000000000000600052604160045260246000fd5b600080fd5b600080fd5b600080fd5b600080fd5b6000601f19601f8301169050919050565b6110af81610efc565b81146110ba57600080fd5b5056fea2646970667358221220b004a7185014b761be26475bfb2048915390640e1c4f3cd57187198a54c07bb664736f6c63430008060033456a656d706c6f206465206465736372697063696f6e2064656c2070726f647563746f",
  "immutableReferences": {},
  "source": "// SPDX-License-Identifier: MIT\r\npragma solidity ^0.8.6;\r\n\r\ncontract ProductsContract {\r\n    uint256 public productsCounter = 0;\r\n\r\n    constructor () {\r\n        // Creamos un producto de ejemplo para el contrato\r\n        createProduct(\"Producto de ejemplo\", \"Ejemplo de descripcion del producto\");\r\n    }\r\n\r\n    struct Product {\r\n        uint id;\r\n        string title;\r\n        string description;\r\n        bool published;\r\n        uint createdAT;\r\n    }\r\n\r\n    event ProductCreated(uint id, string title, string description, bool published, uint createdAT);\r\n    event ProductTogglePublished(uint id, bool published);\r\n    event ProductUpdate(uint id, string title, string description, uint createdAT);\r\n    event ProductDelete(uint id, string title, string description, uint createdAT);\r\n\r\n    mapping(uint => Product) public products;\r\n\r\n    // Funcin para crear un producto\r\n    function createProduct(string memory _title, string memory _description) public {        \r\n        productsCounter++;\r\n        products[productsCounter] = Product(productsCounter, _title, _description, false, block.timestamp);\r\n\r\n        emit ProductCreated(productsCounter, _title, _description, false, block.timestamp);\r\n    }\r\n\r\n    // Funcin para actualizar el estado de un producto \r\n    function togglePublished(uint _id) public {\r\n        Product memory _product = products[_id];\r\n        _product.published = !_product.published;\r\n        \r\n        products[_id] = _product;\r\n\r\n        emit ProductTogglePublished(_id, _product.published);\r\n    }\r\n\r\n    // Funcin actualizar informacin de un producto\r\n    function updateProduct(uint _id, string memory _title, string memory _description) public {\r\n        Product memory _product = products[_id];\r\n\r\n        _product.title = _title;\r\n        _product.description = _description;\r\n        _product.createdAT = block.timestamp;\r\n\r\n        products[_id] = _product;\r\n\r\n        emit ProductUpdate(_id, _product.title, _product.description, _product.createdAT);\r\n    }\r\n\r\n    // Funcin eliminar producto\r\n    function deleteProduct(uint _id) public {\r\n        Product memory _product = products[_id];\r\n\r\n        _product.title = \"\";\r\n        _product.description = \"\";\r\n        _product.published = false;\r\n        _product.createdAT = block.timestamp;\r\n        \r\n        products[_id] = _product;\r\n\r\n        emit ProductDelete(_id, _product.title, _product.description, _product.createdAT);\r\n    }\r\n}",
  "sourcePath": "c:\\Users\\sihue\\Documents\\Programacion\\Visual-Studio-Code\\Blockchain\\project_smart_contracts\\contracts\\ProductsContract.sol",
  "compiler": {
    "name": "solc",
    "version": "0.8.6+commit.11564f7e.Emscripten.clang"
  },
  "schemaVersion": "3.4.16",
  "updatedAt": "2023-12-15T21:34:36.235Z",
  "devdoc": {
    "kind": "dev",
    "methods": {},
    "version": 1
  },
  "userdoc": {
    "kind": "user",
    "methods": {},
    "version": 1
  }
}